:020000040000FA
:02000000FE2FD1
:100B3000893083129F00503083169F0008000630D2
:100B4000F3003030F200F20BA32DF30BA32D0000C5
:100B500083129F149F18AD2DAE2DAA2D1E08F100F3
:100B600083161E08F000080083168716FB309200DB
:100B700083129515151595101510951715138C10D2
:100B80009214121412158C1CC62DC72DC32D83165A
:100B9000871208000030FC000030FB000030FA0033
:100BA0000030F900701CD52DD62DED2D7408F907F5
:100BB000750803110318013E0319DF2DFA077608A3
:100BC00003110318013E0319E62DFB0777080311F3
:100BD0000318013E0319ED2DFC070130F800031046
:100BE000F40DF50DF60DF70DF80BEF2D0130031098
:100BF000F30CF20CF10CF00CFF3E031DF72D730803
:100C0000720471047004031D062E072ED22D7C0879
:100C1000F3007B08F2007A08F1007908F000080080
:100C20008312A901A31F152E162E232EA009A10998
:100C3000A209A309A00A0319A10A0319A20A031908
:100C4000A30AA901A90AA71F262E272E362EA4091A
:100C5000A509A609A709A40A0319A50A0319A60A42
:100C60000319A70A0130FD007D08A9060030AD0078
:100C70000030AC000030AB000030AA002308220492
:100C8000210420040319452E462E932EA801A80AFC
:100C9000562E0130FD000310A00DA10DA20DA30DD5
:100CA000FD0B4B2E0130FD007D08A807A31F592E18
:100CB0005A2E492E0130FD000310AA0DAB0DAC0DCC
:100CC000AD0DFD0B5C2E23082702031D712E22089B
:100CD0002602031D712E21082502031D712E2008F6
:100CE0002402031C742E752E842E2008A4022108D1
:100CF000031C210FA5022208031C220FA6022308B1
:100D0000031C230FA7022A1401300310A30CA20C0A
:100D1000A10CA00CFF3E031D852E0130A802031D6F
:100D2000922E932E5A2E29080319972E982EA32E11
:100D3000AA09AB09AC09AD09AA0A0319AB0A031940
:100D4000AC0A0319AD0A2D08A3002C08A2002B0839
:100D5000A1002A08A000080083123608C200370844
:100D6000C3003808C4003908C5003208C20233087D
:100D7000031C330FBC2EBD2EC3023408031C340FDA
:100D8000C22EC32EC4023508031C350FC82EC92E2F
:100D9000C5024508A3004408A2004308A100420878
:100DA000A0002E08C6002F08C7003008C800310870
:100DB000C9003208C6023308031C330FE02EE12EAF
:100DC000C7023408031C340FE62EE72EC80235088C
:100DD000031C350FEC2EED2EC9024908F30048081C
:100DE000F2004708F1004608F0003E08CA003F083C
:100DF000CB004008CC004108CD003A08CA023B08AD
:100E0000031C3B0F042F052FCB023C08031C3C0F97
:100E10000A2F0B2FCC023D08031C3D0F102F112F62
:100E2000CD024D08F7004C08F6004B08F5004A08C3
:100E3000F400CA2573088312A7007208A60071087F
:100E4000A5007008A4001026831220083A07CE00DF
:100E50000030031801302107D0010318D00A3B07E6
:100E6000CF000318D00A22085007D1010318D10A75
:100E70003C07D0000318D10A230851073D07D100D1
:100E80005108B1005008B0004F08AF004E08AE0046
:100E9000080083160F178F160F168701FF30850085
:100EA000043091009825B4258312851E582F592FA0
:100EB0009D2F9F2571088312D3007008D20052081D
:100EC000AE005308AF000030AF1BFF30B000B100E0
:100ED0000030B5000030B4000030B3000030B20084
:100EE0000030B9000030B8000330B700FF30B60062
:100EF0000030BD000030BC000030BB000030BA0044
:100F00000030C1000030C0000030BF00A030BE0083
:100F1000AC2683122F08D6002E08D500951255183E
:100F2000922F952F83121516972F8312151255089D
:100F300093000710D901DA01542F07145908AE00A5
:100F40005A08AF000030AF1BFF30B000B1000030D6
:100F5000B5000030B4000030B3000030B200003003
:100F6000B9000030B8000330B700FF30B6000030E1
:100F7000BD000030BC000030BB000030BA000030C3
:100F8000C1000030C0000030BF005030BE00AC26B1
:100F900083122F08D8002E08D70095125718D12F8A
:100FA000D42F83121516D62F8312151257089300CB
:100FB00059085A04031DDD2FDE2FE02FD401EA2F3C
:100FC000590A033003195A06031DE72FE82FEA2FA9
:100FD000D401D40A54080319EE2FEF2FF62FFF3057
:100FE000D9070318DA0AFF30DA07542F0130D9077E
:100FF0000318DA0A0030DA07542F00288301492F3A
:02400E00FC3F75
:00000001FF
